:1000000019C033C032C031C030C02FC02EC02DC087
:100010002CC02BC02AC05CC128C027C026C025C068
:100020006DC823C0E3C0BBC009C17FC81EC01DC0CE
:100030001CC01BC011241FBEC0E0D2E0DEBFCDBF7C
:1000400011E0A0E0B1E0E4EDF6E102C005900D9210
:10005000AC33B107D9F722E0ACE3B1E001C01D92A7
:10006000AD3BB207E1F77FDA33CBCACF680F791F18
:100070002FEF3FEF86179707D9F0FC014191CF0191
:100080002427422F42954227042E46954695402527
:10009000042E469540254770022E232F469507943F
:1000A0004795302D24270694479530252427E2CF05
:1000B000C901089510923C0181E0089591E0909368
:1000C0003C0180933D0181E0089520913C01222371
:1000D00041F020913D01FC01208310923C0181E020
:1000E000089580E008959091C10098649093C100B4
:1000F000882321F08091C100806903C08091C100F4
:100100008F768093C1008091C100662329F08862B8
:100110008093C1005A9A08958F7D8093C1000895FD
:100120000F93CF93C22F9A01AB0184E0220F331FAC
:10013000441F551F8A95D1F760E070E488E390E092
:1001400046DA215031093093C5002093C4000130B4
:1001500021F0023021F480E203C080E301C080E09E
:10016000C73021F0C83019F4866001C084609091D6
:10017000C200892B8093C20060E080E0B4DF529A15
:100180005A9881E0CF910F9108958093C60081E045
:1001900008952091C600FC01208381E008951F92FC
:1001A0000F920FB60F9211242F933F934F935F93AB
:1001B0006F937F938F939F93AF93BF93EF93FF932F
:1001C000E0916202F09163020995FF91EF91BF9176
:1001D000AF919F918F917F916F915F914F913F91DF
:1001E0002F910F900FBE0F901F9018951F920F9296
:1001F0000FB60F9211242F933F934F935F936F93FA
:100200007F938F939F93AF93BF93EF93FF93E0916F
:100210006602F091670209955A98FF91EF91BF919C
:10022000AF919F918F917F916F915F914F913F918E
:100230002F910F900FBE0F901F9018951F920F9245
:100240000FB60F9211245A980F900FBE0F901F9067
:100250001895109285001092840080913E01909133
:100260003F01892B69F080916F00826080936F005D
:1002700080913E0190913F01909389008093880086
:10028000809181008560809381000895E1E8F0E02D
:1002900080818A7F8083EFE6F0E080818D7F80839C
:1002A000B19A08959C01A0E1BEE0CFD920E23EE4DE
:1002B00040E050E08CD930933F0120933E011092F2
:1002C00080001092810010928200E0DF81E00895AA
:1002D0001F920F920FB60F9211242F933F934F93BB
:1002E0005F936F937F938F939F93AF93BF93EF939E
:1002F000FF93E0916402F091650209955A98FF918D
:10030000EF91BF91AF919F918F917F916F915F918D
:100310004F913F912F910F900FBE0F901F90189506
:100320001F93CF93DF93FC01EB018881998105979F
:1003300009F044C0438150E0542F44278481482B66
:10034000CA0101978F3C9740C8F58181928119823B
:10035000188221E02083288139812F5F3F4F398324
:100360002883BA0123E0769567952A95E1F79A01EB
:1003700027703327232B19F011E0160F01C0162F19
:100380001183288139812F5F3F4F39832883692F5B
:1003900070E0782B6F5F7F4F20E0CF010296EDD5A4
:1003A000882321F0DF91CF911F9193C28881998199
:1003B000810F911D9983888380E001C083E0DF91E4
:1003C000CF911F910895CF93DF9300D0CDB7DEB7C3
:1003D000FC01DB018D919C910597F9F484818111D9
:1003E0001CC083819FEF980F9E3FB8F0918162817E
:1003F0001A828F3F19F481E0898301C0198270E06D
:10040000792B6F5F7F4F21E041E050E0CE010196F4
:10041000B4D5882321F05DD203C083E001C080E021
:100420000F900F90DF91CF910895CF93DF93FC0150
:10043000DB018D919C91069798F1438150E0542FF8
:1004400044278481482B9A0127703327CA01A3E0EF
:1004500096958795AA95E1F7232B09F08F5F9A016E
:1004600021503109203B3740D8F49581891318C0B9
:10047000EB01618170E0762F66278281682B6F5FC8
:100480007F4F21E0CF01069678D5882319F0DF91C0
:10049000CF911FC285E090E09983888380E001C0FE
:1004A00083E0DF91CF9108951F93CF93DF93FC01F9
:1004B000EB0188819981059709F043C0438150E0A1
:1004C000542F44278481482BCA0101978F3C9740C1
:1004D000C0F5818192811982188222E020832881CF
:1004E00039812F5F3F4F39832883BA0123E0769506
:1004F00067952A95E1F79A0127703327232B19F086
:1005000011E0160F01C0162F1183288139812F5F4A
:100510003F4F39832883692F70E0782B6F5F7F4FBF
:10052000CF01029677D5882321F0DF91CF911F91DB
:10053000D0C188819981810F911D9983888380E042
:1005400001C083E0DF91CF911F910895FB012081CD
:1005500031812530310591F4FC01618170E0762F05
:1005600066278281682B6F5F7F4F21E041E050E07A
:10057000CF010396ABD4882319F0ABC183E0089573
:1005800080E00895CF93DF93FC01DB018D919C9176
:10059000069740F1438150E0542F44278481482B33
:1005A000CA01019788379105E8F49581842F880F57
:1005B000981318C0EB01618170E0762F6627828165
:1005C000682B6F5F7F4F21E0CF0106967FD4882391
:1005D00019F0DF91CF917DC185E090E09983888308
:1005E00080E001C083E0DF91CF9108950F931F93C6
:1005F000CF93DF93FC01DB018D919C910597B9F5B9
:100600009481092F10E09801215031092D373105CF
:1006100070F5EB01418162811982188283E0808349
:10062000288139812F5F3F4F39832883990F918328
:100630008881998101969983888370E0742B6F5F1C
:100640007F4F20E0A801CF01029640D4882329F0F3
:10065000DF91CF911F910F913CC1000F111F888135
:100660009981080F191F1983088380E001C083E076
:10067000DF91CF911F910F910895CF92DF92EF926A
:10068000FF920F931F93CF93DF93EC01FB018081C7
:1006900091810A9708F458C00B8110E0102F0027B1
:1006A0008C81082BC80101978D37910508F04EC049
:1006B0004F8150E0542F44278885482BCA01019769
:1006C0008937910508F042C0898590E09A01220F90
:1006D000331F28173907D1F57B01C980DA806D8176
:1006E00070E0762F66278E81682B6F5F7F4F21E049
:1006F000CE010A96EBD381112BC0F7011182108233
:1007000087E1888380819181019691838083802F06
:10071000880F8983808191810196918380836D2DDB
:1007200070E07C296F5F7F4F20E0A801CE01029628
:10073000CDD381110DC0000F111FF7018081918170
:10074000080F191F1183008380E00BC083E009C0EC
:10075000DF91CF911F910F91FF90EF90DF90CF909D
:10076000B8C0DF91CF911F910F91FF90EF90DF9074
:10077000CF9008950F931F93CF93DF93FC01DB017C
:100780008D919C9111970597E9F5C381D0E0DC2FFD
:10079000CC278481C82BCE0101978C37910590F529
:1007A0008B012181628111961C921E9284E08083CC
:1007B0008D919C911197019611969C938E938C2FFD
:1007C000880F81838D919C91119701968D939C93B5
:1007D00070E0722B6F5F7F4FAE01CF01029652D354
:1007E000882329F0DF91CF911F910F9172C0CC0F18
:1007F000DD1FF80180819181C80FD91FD183C0838B
:1008000080E001C083E0DF91CF911F910F910895A7
:100810000F931F93CF93DF93342FA22FB0E08B0160
:1008200023E0169507952A95E1F76770772741E051
:1008300050E002C0440F551F3A95E2F7415051096C
:10084000EC01C00FD11F28810F5F1F4FFC01E00F8B
:10085000F11F808130E0382B062E02C0440F551F57
:100860000A94E2F740955095422353239D0102C01C
:10087000220F331F6A95E2F7242B352B2883308310
:10088000DF91CF911F910F910895FB0123E0F69521
:10089000E7952A95E1F7DC01AE0FBF1F2C91119669
:1008A0008C9130E0382B53E0EE0FFF1F5A95E1F7A3
:1008B0006E1B7F0B02C0369527956A95E2F781E0A3
:1008C00090E002C0880F991F4A95E2F701978223B2
:1008D0000895883030F4E82FF0E0EF5CFE4F80811F
:1008E000089584E00895CF92DF92EF92FF920F93E4
:1008F000862F69017A01F89428E0B701A60110DC7F
:100900008130D9F481E0C8168BE4D806E104F10403
:1009100060F4A7019601220F331F441F551F60EAA0
:100920007FE787E190E053D604C023E230E040E067
:1009300050E0C901B7DC813011F083E001C080E0F4
:1009400078940F91FF90EF90DF90CF900895F894F6
:100950001092460160E081E0C6DB7BDC789408956C
:10096000F89460E080E0BFDB91DC78940895EF922A
:10097000FF920F931F93CF93DF93F8942091400140
:10098000309141012430310510F485E01DC08A0109
:10099000EB017C01609140017091410182E691E0A0
:1009A00065DB892B91F780916201F701808380914B
:1009B0004001909141010397F8019183808383E680
:1009C00091E09983888380E07894DF91CF911F91A3
:1009D0000F91FF90EF900895CF93F894C091460146
:1009E000C13009F044C0282FCB01019790934501F5
:1009F0008093440161E070E0709343016093420191
:100A0000FC0120832091420130914301420F531F8A
:100A10005093430140934201609142017091430120
:100A200025DB492F2091420130914301B9016F5FCD
:100A30007F4F7093430160934201F901EE59FE4FDD
:100A4000808380914201909143019C012F5F3F4F31
:100A50003093430120934201FC01EE59FE4F408345
:100A6000C093470161E080E03EDB80E001C085E0AB
:100A70007894CF910895CF93DF931F92CDB7DEB7CF
:100A8000CE01019686DB80914601813031F0B8F1CC
:100A90008230C9F0833099F133C010924101109235
:100AA000400180914001909141019C012F5F3F4F97
:100AB00030934101209340012981FC01EE59FE4F02
:100AC000208382E01AC080914001909141018F3FC4
:100AD000910509F088F480914001909141019C01B9
:100AE0002F5F3F4F30934101209340012981FC014A
:100AF000EE59FE4F208303C083E080934601A9DBBB
:100B000080E00F90DF91CF910895CF9380914701BE
:100B1000882319F0813029F02CC060E081E0E3DA0D
:100B200028C08091420190914301892BC9F0E09146
:100B30004401F0914501808128DB8091440190912E
:100B400045010196909345018093440180914201B3
:100B5000909143010197909343018093420109C012
:100B600083E0ACDAC82F60E081E0BDDA1092470183
:100B700001C0C0E08C2FCF910895CF9380914601A2
:100B8000882321F0823031F481E001C080E096DAE0
:100B9000C82F01C0C0E07ADB81E0809346018C2F32
:100BA000CF910895CF92DF92EF92FF920F931F9310
:100BB000CF93962F5FEF560F573F08F045C06093D5
:100BC0005901811141C05E2D68017901642F892F7F
:100BD00027EA34E0309356012093550120EB34E0AE
:100BE00030935401209353012CEE34E0309358019C
:100BF0002093570127EB34E03093520120935101A9
:100C00001092500110924F012BE335E030936702B0
:100C10002093660225E835E0309363022093620258
:100C20002DEB35E03093650220936402052FA70178
:100C3000960159DEC82F81110AC03CDA882331F0B1
:100C400081E08093300103C0C2E001C0C3E08C2F7B
:100C5000CF911F910F91FF90EF90DF90CF9008956B
:100C60009FEF980F973F10F480935901089518163D
:100C70000CF03DC0F894E0E0F1E020E030E06115D8
:100C8000710521F1418152814115510571F4F9013C
:100C9000EE0FFF1FE20FF31FE050FF4F80837283C0
:100CA00061832031310501F509C06417750779F3B7
:100CB0002F5F3F4F33962031310521F784E015C077
:100CC0002F5F3F4F33962031310571F090818913AA
:100CD000F7CFF901EE0FFF1F2E0F3F1FF901E05074
:100CE000FF4F10821282118280E07894089582E092
:100CF000089580913001813041F4E0914F01F091ED
:100D00005001309721F0099502C086E0089580E0F7
:100D1000089580913001813049F4E0915501F091BE
:100D2000560109951092300180E0089586E00895FB
:100D300080913001811109C0E0915301F09154017B
:100D4000099581E08093300104C0813011F086E084
:100D5000089580E00895CF93DF931F92CDB7DEB75B
:100D600080913001811187C0CE010196AED98130CA
:100D700009F083C09981913089F0923009F07DC0EB
:100D8000A0914C01B0914D019C91909349018093A9
:100D90004801E0E0F1E020E030E01EC0E0915101C8
:100DA000F09152014AE451E06CE471E08EE491E08C
:100DB0000995811162C080914E0190915901891766
:100DC00011F081115AC082E079D957C02F5F3F4F8F
:100DD000339620313105B1F08081882399F0981342
:100DE000F5CFF901EE0FFF1F2E0F3F1FF901E05065
:100DF000FF4F0180F281E02D6AE471E0CD01099599
:100E00008093480180914E018823B9F120914801D7
:100E1000222309F1E0914C01F0914D0181E090E035
:100E200090934B0180934A018091490180688083AF
:100E300040914C0150914D0180914A0190914B019C
:100E4000BC016F5F7F4F70934B0160934A01FA01C1
:100E5000E80FF91F208340914A0150914B016091A6
:100E60004C0170914D01E0915701F0915801809132
:100E70005901099502C086E001C080E00F90DF9122
:100E8000CF91089561157105F9F09B01240F351F6D
:100E90002A303105C8F4DC01660F771FFB01E558E5
:100EA000FD4F4115510559F081818C938081119638
:100EB0008C9311974150510912963296F2CF8AEFD6
:100EC00080936C0280E0089581E00895CF93DC0167
:100ED0006F3F710579F44130510579F4CC91CE3DE5
:100EE00061F4213051F46EED8FEF91E0C7D3C093E0
:100EF0005A013EC061157105E9F1CB01840F951FC0
:100F00000B97C0F5222349F0213079F5660F771F42
:100F1000FB01E557FD4F2AEF13C0660F771FFB015A
:100F2000E557FD4F4115510501F181818C93808179
:100F300011968C9311974150510912963296F2CF27
:100F40004115510591F08C9190E0982F882791835D
:100F5000808311963C911197832B819391934150FB
:100F6000510920936C021296EBCF8AEF80936C02AA
:100F700080E001C081E0CF910895BF92CF92DF92CF
:100F8000EF92FF920F931F93CF93DF93611571053B
:100F9000A1F1FB01E40FF51F3A9778F58A01EB0107
:100FA0006C018AEF80936C02222349F0213039F5DD
:100FB000C459DD4FE12CF12C8AEFB82E10C0C45972
:100FC000DD4FE12CF12CE016F106C9F0299141E04A
:100FD000B701C6011DDC8FEFE81AF80AF4CFE0165E
:100FE000F10669F041E0B701C6014FDC8993B09288
:100FF0006C028FEFE81AF80AF2CF81E001C080E0BE
:10100000DF91CF911F910F91FF90EF90DF90CF90E4
:10101000BF900895CF92DF92EF92FF920F931F93AC
:10102000CF93DF9361157105E9F09B01240F351F04
:101030002A303105B8F46A017C018AEF80936C0292
:10104000EB01CC58DD4F00E010E0C016D10641F0B6
:10105000299141E0B801C701DBDB0F5F1F4FF5CFDE
:1010600080E001C081E0DF91CF911F910F91FF904F
:10107000EF90DF90CF900895EF920F931F93E12CA4
:1010800000E012EC21E030E040E06FE280E08ADD39
:1010900078941F910F91EF903CCE80915A018E3D34
:1010A00009F4FFCF0895089588E19FE00FB6F89402
:1010B000A895809360000FBE90936000A8958093E0
:1010C000C1008EE08093C2001092C50081E0809341
:1010D000C40017BC569A91E894BD93E095BD8093E7
:1010E0006E008EE480937C008FEF80937A00449AA8
:1010F0003C9A089580918D0287BD08951F920F92AA
:101100000FB60F9211248F939F9380919F0290911D
:10111000A00201969093A00280939F029F918F91CD
:101120000F900FBE0F901F9018951F920F920FB641
:101130000F9211242F933F934F935F936F937F935D
:101140008F939F93EF93FF93E0917800F091790054
:101150008091A5028F5F8093A502982F9C77D1F193
:1011600087FF1CC04091A1025091A2029A0165E044
:10117000369527956A95E1F74E0F5F1F421B530B7B
:101180005093A2024093A1023093800220937F02E9
:10119000803C49F581E08093760225C02091A3022E
:1011A0003091A402B90195E0769567959A95E1F79B
:1011B0002E0F3F1F261B370B3093A4022093A30250
:1011C00070937E0260937D02803469F481E08093A5
:1011D000750209C0803811F481E403C0811103C095
:1011E0008EE480937C00FF91EF919F918F917F918E
:1011F0006F915F914F913F912F910F900FBE0F9084
:101200001F9018950895882319F04098389A0895EA
:1012100038980895EDE8F2E086EF99E095838483AD
:101220008CE09DE09783868382E49EE091878087AF
:1012300088EB9BE09387828784EE9CE09587848788
:1012400087E594E0978786878FE290E0918B808B8B
:1012500036C1461B570B9C01261B370BA1F0AFEF85
:10126000B0E0F3D19A01550F440B550BD2D12F3F6B
:1012700031054105510529F024F02FEF30E040E021
:1012800050E0C901089580E090E00895489904C0B5
:101290001092A7021092A6020895CF93DF93809137
:1012A0006F02882361F08091A6029091A7020196B7
:1012B0009093A7028093A602892B09F4A3DF2091C3
:1012C0007D0230917E022115310579F08091750201
:1012D000882359F040E050E069EA77E581E190E049
:1012E00076D1309382022093810280917602882306
:1012F00041F080917F0290918002909384028093CC
:1013000083028091AA02811104C090918F02909370
:101310005E0190915E01981718F480E090E002C0A1
:1013200081E090E070DF8091AA028F5F8093AA0233
:10133000C0918102D091820280919102909192029B
:10134000C817D90720F481E08093770202C0109279
:10135000770240919502509196024C175D0720F458
:1013600081E08093780202C010927802609193022B
:101370007091940280916D026C177D0780F491E06A
:10138000909376021092A7021092A60281110FC0CC
:10139000CE015FDF90938E0280938D0208C0109281
:1013A0007602811104C010928E0210928D0260911B
:1013B00097027091980280916E026C177D0768F415
:1013C000811111C04091990250919A02CE0141DFE2
:1013D0009093900280938F0206C0811104C01092F6
:1013E000900210928F0280919D0290919E02209116
:1013F0005C0130915D018217930749F031DC8091E7
:101400009D0290919E0290935D0180935C01DF911B
:10141000CF910895861761F0841751F0641739F061
:1014200040E050E0BA0184E090E03AD1FFCF862F4F
:101430000895EF92FF920F931F93CF93DF938091C4
:101440005F01811135C081E9E82E82E0F82E0DEAB6
:1014500012E0C8E0D0E0F70161917F01F8018081DE
:101460006817B1F06083CE0109D1F8016081CE0127
:10147000409604D1F8016081CE018096FFD0809122
:1014800060019091610101969093610180936001E8
:101490000F5F1F4F2196C831D105E9F68091600199
:1014A000909161018131974218F081E080935F0152
:1014B000DF91CF911F910F91FF90EF900895CF9200
:1014C000DF92EF92FF920F931F93CF93DF9384E00D
:1014D00090E0CFD06F3A7E4B8D4A9E4D01F581E969
:1014E000E82E82E0F82E0DEA12E0C8E2D0E0CE014C
:1014F000B8D0C82ECE014097B4D0D82ECE01809758
:10150000B0D04C2D6D2D86DFF70181937F01F8015E
:1015100081938F012196C833D10549F71BC0A1E9FA
:10152000B2E0EDEAF2E08D918F5F819322E0ED3B36
:10153000F207C9F77EDF4FEA5EEB6DEA7EED84E0ED
:1015400090E0DF91CF911F910F91FF90EF90DF908E
:10155000CF90A6C0DF91CF911F910F91FF90EF9098
:10156000DF90CF900895A0DD87DD54DE7894209140
:101570009F023091A0028091A8029091A9022817A1
:10158000390759F080919F029091A0029093A9028F
:101590008093A80282DD81DEADDD80919F02909173
:1015A000A0022091AB023091AC02821B930B8333DB
:1015B000924048F080919F029091A0029093AC02DB
:1015C0008093AB0236DFC7DB61DEA895CFCFA1E207
:1015D0001A2EAA1BBB1BFD010DC0AA1FBB1FEE1FAD
:1015E000FF1FA217B307E407F50720F0A21BB30BF8
:1015F000E40BF50B661F771F881F991F1A9469F774
:1016000060957095809590959B01AC01BD01CF01CF
:101610000895052E97FB16F400940FD057FD05D0C2
:10162000D6DF07FC02D046F408C0509540953095AF
:1016300021953F4F4F4F5F4F08959095809570953E
:1016400061957F4F8F4F9F4F0895A29FB001B39F29
:10165000C001A39F01D0B29F700D811D1124911D67
:101660000895F999FECF92BD81BDF89A992780B56A
:101670000895A6E1B0E044E050E01CC0262FF9999F
:10168000FECF92BD81BDF89A019700B4021639F0E1
:101690001FBA20BD0FB6F894FA9AF99A0FBE0895B2
:1016A0000396272FECDFEADF252FE9DF242FE7CF92
:1016B000DC01CB01FC01F999FECF06C0F2BDE1BD12
:1016C000F89A319600B40D9241505040B8F7089501
:0416D000F894FFCFBC
:1016D40004BA0303F60210C20206A602173D030170
:1016E400900105E3010F15020254020000000000FE
:1016F40000000000000000000000000000000000E6
:0C170400020002040404040406000100BA
:02180000CCD149
:101806001F93CF93DF93AC01F894F999FECF909193
:1018160000019C3041F483E0FA0180935700E8957B
:1018260007B600FCFDCFEB01C05CDF4FDB0181E0BA
:10183600BA016A1B7B0B1C91FB01EA0FFB1F119679
:101846002C91119730E0322F2227210F311D0901EB
:1018560080935700E89511241296CA17DB0759F7AB
:101866009C3041F485E0FA0180935700E89507B66D
:1018760000FCFDCF81E180935700E895DF91CF9181
:101886001F910895262FF999FECF92BD81BDF89A32
:10189600019700B4021639F01FBA20BD0FB6F894AE
:1018A600FA9AF99A0FBE08950895F89481E1809303
:1018B6005700E89561E08FEF91E0E4DFE0E0F0E0CB
:1018C60009948091C00086FFFCCF8091C00080649F
:1018D6008093C0005A988091C6008091C60080917E
:1018E600C6000895F999FECF92BD81BDF89A992751
:1018F60080B508950895680F791F2FEF3FEF86177B
:101906009707D9F0FC014191CF012427422F429538
:101916004227042E469546954025042E4695402599
:101926004770022E232F469507944795302D24277E
:101936000694479530252427E2CFC9010895909152
:10194600C00096FD04C09091C00095FFF8CF90911D
:10195600C00090649093C0008093C600529A5A9A31
:1019660008959B01205C3F4FDB01861B970BFC0112
:10197600EA0FFB1FE4914D91E41731F081EF90E0FF
:10198600DEDF8FEF9FEF0895A217B30781F780E0A0
:1019960090E008958091C00087FFFCCF8091C6003B
:1019A60008956F927F928F929F92AF92BF92CF923D
:1019B600DF92EF92FF920F931F93CF93DF9303E093
:1019C600FF24F39434E0E32E45E0D42E56E0C52EF2
:1019D60067E0B62E78E0A72EE9E09E2EFAE08F2E7D
:1019E600ABE07A2EBCE06B2E109100011C3031F575
:1019F600D1DF88836091080170E0695F7F4F82E0E4
:101A060091E079DF492F5527288130E042175307A7
:101A160081F499272197288130E08217930749F4AA
:101A260081E090E020910801203409F07FC080E039
:101A36007DC080EF84DF8FEF9FEF78C01B3049F4C5
:101A4600A9DF9E012F5F3F4F888360920001E90165
:101A5600CBCF1A30A9F49EDF9E012F5F3F4F8883BC
:101A6600C150D1408091080190E006968C179D07E1
:101A76001CF47092000102C010930001A895E7CFF4
:101A8600193041F487DF9E012F5F3F4F8883809294
:101A96000001DDCF183041F47DDF9E012F5F3F4FFF
:101AA600888390920001D3CF173041F473DF9E01F3
:101AB6002F5F3F4F8883A0920001C9CF163041F4B3
:101AC60069DF9E012F5F3F4F8883B0920001BFCF31
:101AD600153041F45FDF9E012F5F3F4F8883C09230
:101AE6000001B5CF143041F455DF9E012F5F3F4F03
:101AF6008883D0920001ABCF133069F44BDF9E018F
:101B06002F5F3F4F8883803119F4E09200019FCF09
:101B1600F09200019CCF3EDF80930201843811F4DD
:101B260000930001A89523E031E091CFDF91CF919A
:101B36001F910F91FF90EF90DF90CF90BF90AF90E5
:101B46009F908F907F906F900895CF9397FDFFCFD2
:101B560080910201F4DE80910301F1DE809104019F
:101B6600EEDE80910501EBDE80910601E8DE8091D4
:101B76000701E5DE66E070E082E091E0BCDEC92F99
:101B860080930801DCDEC09309018C2FD8DE99DE34
:101B9600CF910895112484E08EBF8FEF8DBF1FBEB5
:101BA6009EE088E10FB6F894A895809360000FBE7A
:101BB60090936000E0E0F1E01192EF3F84E0F807D7
:101BC600D9F78FEF91E08EDE8E3D31F58091C00022
:101BD60080648093C00080EE8093C00088E180938B
:101BE600C1008EE08093C20081E08093C40084E04F
:101BF6008AB98BB91092C50084E88093C60080919B
:101C0600C00086FFFCCF8091C00080648093C00036
:101C16005A988091C60001C048DE17B814B818B8A3
:101C260015B8FF24F394F0920001BBDE8C0197FDFA
:101C360017C0C0910401D0E0DC2FCC2780910501AC
:101C4600C80FD11DCC0FDD1F69E071E0CE01D8DDD4
:101C560069E071E0CE0185DE97FF02C00FEF1FEF4E
:101C660080E09DE70197F1F7C8016FDF01301105AC
:081C760009F41BDEA895D7CF8D
:00000001FF
